:100000000C9434000C943E000C943E000C943E0082
:100010000C943E000C943E000C943E000C943E0068
:100020000C943E000C943E000C943E000C943E0058
:100030000C943E000C943E000C943E000C943E0048
:100040000C943E000C943E000C943E000C943E0038
:100050000C943E000C943E000C943E000C943E0028
:100060000C943E000C943E0011241FBECFEFD8E04C
:10007000DEBFCDBF0E9440000C9458000C940000DD
:1000800080E284B920E225B981EA96E8A1E0B0E0F7
:1000900025B90197A109B109D9F715B881E492E40E
:1000A000AFE0B0E015B80197A109B109D9F7EBCFDE
:0400B000F894FFCFF2
:00000001FF
